:020000040800F2
:1000000000280020AD1700083D170008431700081E
:10001000491700084F170008551700080000000096
:100020000000000000000000000000005B17000856
:100030006717000800000000731700087F1700080A
:10004000F5170008F5170008F5170008F517000860
:10005000F5170008F5170008F5170008F517000850
:10006000F5170008F5170008F5170008F517000840
:10007000F5170008F5170008F5170008F517000830
:10008000F5170008F5170008F5170008F517000820
:10009000F5170008F5170008F5170008F517000810
:1000A000F5170008F5170008F5170008F517000800
:1000B0008D170008F517000800000000F51700086C
:1000C000F51700080000000000000000F517000808
:1000D00000000000F5170008F517000800000000F8
:1000E000F5170008F5170008F517000800000000D4
:1000F0000000000000000000000000000000000000
:0C01000000000000000000005FF808F1A3
:10010C0010B5054C237833B9044B13B10448AFF345
:10011C0000800123237010BD680000200000000047
:10012C004C2E000808B5034B1BB103490348AFF331
:10013C00008008BD000000006C0000204C2E000860
:10014C0080B400AF064B1B68012B04D1044B00227A
:10015C001A60012300E000231846BD4680BC70479E
:10016C008400002080B400AF064B1B68012B04D127
:10017C00044B00221A60012300E000231846BD4600
:10018C0080BC70478800002080B400AF064B1B6811
:10019C00012B04D1044B00221A60012300E0002340
:1001AC001846BD4680BC70478C00002080B400AF60
:1001BC00034B01221A6000BFBD4680BC704700BFD4
:1001CC008400002080B400AF034B01221A6000BFF2
:1001DC00BD4680BC704700BF8800002080B400AFD3
:1001EC00034B01221A6000BFBD4680BC704700BFA4
:1001FC008C00002080B500AF1F4B1B681F4A13609A
:10020C001F4B1B681C4A13604FF480511D4801F0B2
:10021C00D7FD03461A461A4B1A60184B1A68164B30
:10022C001B689A4225D1144B1A68154B1B689A42CD
:10023C001FD1134B1A68144B1B689A420DD0104BEC
:10024C001B68114A13600E4B1B68002B11D1FFF772
:10025C00ADFF0E4BC8221A600BE00C4B1B68013B28
:10026C000A4A1360094B1B68002B02D1064B012272
:10027C001A6000BF80BD00BF0400002000000020F9
:10028C0008000020000801400C0000203000002075
:10029C0080B500AF1F4B1B681F4A13601F4B1B68B8
:1002AC001C4A13604FF400511D4801F089FD0346B0
:1002BC001A461A4B1A60184B1A68164B1B689A424E
:1002CC0025D1144B1A68154B1B689A421FD1134B3E
:1002DC001A68144B1B689A420DD0104B1B68114ABC
:1002EC0013600E4B1B68002B11D1FFF76BFF0E4BED
:1002FC0032221A600BE00C4B1B68013B0A4A13605C
:10030C00094B1B68002B02D1064B01221A6000BF5F
:10031C0080BD00BF14000020100000201800002039
:10032C00000801401C0000203400002080B500AF04
:10033C001F4B1B681F4A13601F4B1B681C4A136022
:10034C004FF480411D4801F03BFD03461A461A4B01
:10035C001A60184B1A68164B1B689A4225D1144B1D
:10036C001A68154B1B689A421FD1134B1A68144B11
:10037C001B689A420DD0104B1B68114A13600E4B30
:10038C001B68002B11D1FFF729FF0E4BC8221A60F6
:10039C000BE00C4B1B68013B0A4A1360094B1B68B2
:1003AC00002B02D1064B01221A6000BF80BD00BF9A
:1003BC00240000202000002028000020000801401C
:1003CC002C0000203800002080B500AFB54B1B6816
:1003DC000C3B0B2B00F2D88201A252F823F000BF89
:1003EC001D040008D1050008AD0700089509000898
:1003FC009509000895090008950900089509000859
:10040C00950900080D050008E9060008C708000852
:10041C0001F09EF801F0ACF801F0BAF8012240218D
:10042C00A14801F0E4FC012280219F4801F0DFFC8F
:10043C0001224FF400719C4801F0D9FC01224FF4C9
:10044C008061994801F0D3FC984B1B68012B0CD1AF
:10045C002021954801F0E3FC4FF48071924801F0A3
:10046C00DEFC4FF4FA7001F059F8914B1B68002B2D
:10047C0026D0904B00221A608E4B02225A608E4B73
:10048C001B688E4A82FB03129210DB17D31A894A1F
:10049C009360894B1968894B83FB01239A10CB1706
:1004AC00D21A13469B0013445B00CA1A814BDA60C4
:1004BC00834B1B68184600F0B5FCFA2001F014F8C9
:1004CC00FFF73EFE0346012B02D1764B0D221A603C
:1004DC00FFF748FE0346012B0FD1724B15221A6011
:1004EC00754B1B68622B03DD734B01221A6004E011
:1004FC00714B1B680133704A1360FFF745FE68E2CD
:10050C006A4B1B68012B0CD12021674801F087FC3A
:10051C004FF48071644801F082FC4FF4FA7000F0E3
:10052C00FDFF634B1B68002B20D0634B1B68634A99
:10053C0082FB03129210DB17D31A5E4A93605E4B58
:10054C0019685E4B83FB01239A10CB17D21A134602
:10055C009B0013445B00CA1A564BDA60584B1B685D
:10056C00184600F05FFCFA2000F0BEFFFFF7FAFD22
:10057C000346012B0CD1504B1B68622B03DD4E4BF9
:10058C0001221A6004E04C4B1B6801334A4A136089
:10059C00FFF7D6FDFFF7F8FD0346012B40F0148260
:1005AC00454B1A68474B1B689A4240F30D82424BED
:1005BC001A68444B1B68D31A434A1360394B0C22FC
:1005CC001A6001E200F0C4FF00F0D2FF00F0E0FF7F
:1005DC0001222021344801F00AFC012280213248FA
:1005EC0001F005FC01224FF480712F4801F0FFFB54
:1005FC0001224FF480612C4801F0F9FB2B4B1B6856
:10060C00012B0CD14021284801F009FC4FF400715A
:10061C00254801F004FC4FF4FA7000F07FFF244BE6
:10062C001B68002B26D0234B00221A60214B03227F
:10063C005A60244B1B68214A82FB03129210DB1771
:10064C00D31A1C4A93601F4B19681C4B83FB012364
:10065C009A10CB17D21A13469B0013445B00CA1A8C
:10066C00144BDA60164B1B68184600F0DBFBFA20C3
:10067C0000F03AFFFFF764FD0346012B02D1094B52
:10068C000E221A60FFF76EFD0346012B23D1054B9A
:10069C0016221A600B4B1B68092B17DD094B012224
:1006AC001A6018E09000002000080140C4000020EF
:1006BC00BC000020480000203C00002067666666F5
:1006CC00940000204000002044000020AF4B1B6829
:1006DC000133AE4A1360FFF757FD7AE1AC4B1B6850
:1006EC00012B0CD14021AB4801F099FB4FF4007168
:1006FC00A84801F094FB4FF4FA7000F00FFFA64BE2
:10070C001B68002B20D0A14B1B68A44A82FB031250
:10071C009210DB17D31AA24A93609C4B19689F4B1B
:10072C0083FB01239A10CB17D21A13469B00134458
:10073C005B00CA1A9A4BDA609A4B1B68184600F099
:10074C0071FBFA2000F0D0FEFFF70CFD0346012BE5
:10075C000CD18E4B1B68092B03DD8C4B01221A60CC
:10076C0004E08A4B1B680133884A1360FFF7E8FCEE
:10077C00FFF70AFD0346012B40F028818A4B1A68CB
:10078C00824B1B689A4240F32181874B1A687F4B3E
:10079C001B68D31A854A1360854B0D221A6015E12C
:1007AC0000F0D6FE00F0E4FE00F0F2FE0122402143
:1007BC00784801F01CFB01222021764801F017FB40
:1007CC0001224FF40071734801F011FB01224FF428
:1007DC008071704801F00BFB6D4B1B68012B0CD129
:1007EC0080216C4801F01BFB4FF48061694801F0DB
:1007FC0016FB4FF4FA7000F091FE674B1B68002B50
:10080C0026D0674B00221A60654B04225A60674B56
:10081C001B68624A82FB03129210DB17D31A604AE0
:10082C009360624B19685D4B83FB01239A10CB17C5
:10083C00D21A13469B0013445B00CA1A584BDA6059
:10084C00584B1B68184600F0EDFAFA2000F04CFEED
:10085C00FFF776FC0346012B17D1554B0B221A6080
:10086C0000F076FE00F084FE00F092FE514B002268
:10087C001A60514B00221A60504B01221A60504BE7
:10088C0001221A604F4B01221A60FFF76BFC0346E2
:10089C00012B0FD1464B17221A60444B1B68622B5D
:1008AC0003DD424B01221A6004E0404B1B6801330C
:1008BC003E4A1360FFF768FC8BE0354B1B68012B3D
:1008CC000CD18021334801F0AAFA4FF480613148F1
:1008DC0001F0A5FA4FF4FA7000F020FE2E4B1B68C5
:1008EC00002B20D0314B1B682C4A82FB0312921038
:1008FC00DB17D31A2A4A93602C4B1968274B83FBBE
:10090C0001239A10CB17D21A13469B0013445B0099
:10091C00CA1A234BDA60234B1B68184600F082FA84
:10092C00FA2000F0E1FDFFF71DFC0346012B0CD172
:10093C001E4B1B68622B03DD1C4B01221A6004E06A
:10094C001A4B1B680133194A1360FFF7F9FBFFF7C9
:10095C001BFC0346012B3BD10C4B1A68134B1B6839
:10096C001344632B34DC114B1A68084B1B689A42F6
:10097C002EDD0E4B1A68054B1B6813440A4A136094
:10098C000B4B0E221A6023E000BF22E04000002037
:10099C00C400002000080140BC00002067666666A9
:1009AC0048000020940000203C000020440000205F
:1009BC0090000020980000209C000020A400002043
:1009CC00AC000020B400002000BF02E000BF00E03B
:1009DC0000BF00BF80BD00BF80B500AFC24B1B681D
:1009EC00012B05D100F0C6FA4FF47A7000F062FDCD
:1009FC00BE4B1B68012B07D1BD4B1B68184600F082
:100A0C0011FAFA2000F03CFDBA4B1B68013B0A2B93
:100A1C0000F25E8101A252F823F000BFB10A000877
:100A2C003D0B0008C90B0008530C0008DD0C000836
:100A3C00DD0C0008DD0C0008DD0C0008DD0C0008E6
:100A4C00DD0C0008550A000801222021AA4801F0FB
:100A5C00CEF901224021A84801F0C9F901228021D8
:100A6C00A54801F0C4F901224FF48071A24801F0AD
:100A7C00BEF901224FF400719F4801F0B8F9012230
:100A8C004FF480619C4801F0B2F99A4B01221A6034
:100A9C009A4B1B684FF47A7202FB03F3184600F072
:100AAC00D5FC1EE100222021934801F0A0F901227F
:100ABC004021914801F09BF9012280218E4801F0E0
:100ACC0096F901224FF480718B4801F090F90122C4
:100ADC004FF40071884801F08AF900224FF48061CC
:100AEC00854801F084F9864B1B68012B0BD1814B97
:100AFC0002221A60834B1B684FF47A7202FB03F3D9
:100B0C00184600F0A3FCFFF71BFB0346012B40F03B
:100B1C00E180784B0C221A6000222021764801F0EB
:100B2C0066F900224FF48071734801F060F9D1E04E
:100B3C0000222021704801F05AF9012240216E4810
:100B4C0001F055F9012280216B4801F050F9012286
:100B5C004FF48071684801F04AF900224FF400719B
:100B6C00654801F044F901224FF48061624801F0BC
:100B7C003EF9634B1B68012B0BD15E4B03221A60B1
:100B8C005E4B1B684FF47A7202FB03F3184600F0BD
:100B9C005DFCFFF7D5FA0346012B40F09D80554BC9
:100BAC000C221A6000222021534801F020F9002267
:100BBC004FF48071504801F01AF98DE00122202188
:100BCC004D4801F014F9012240214B4801F00FF976
:100BDC0000228021484801F00AF900224FF480716C
:100BEC00454801F004F901224FF40071424801F02C
:100BFC00FEF801224FF480613F4801F0F8F8404BB9
:100C0C001B68012B0BD13B4B04221A603D4B1B681C
:100C1C004FF47A7202FB03F3184600F017FCFFF74F
:100C2C008FFA0346012B59D1324B0C221A60002249
:100C3C002021314801F0DBF800224FF480712E485E
:100C4C0001F0D5F84AE0012220212B4801F0CFF821
:100C5C0000224021284801F0CAF8012280212648B0
:100C6C0001F0C5F800224FF48071234801F0BFF861
:100C7C0001224FF40071204801F0B9F801224FF421
:100C8C0080611D4801F0B3F81D4B1B68012B0BD183
:100C9C00184B01221A60194B1B684FF47A7202FB35
:100CAC0003F3184600F0D2FBFFF74AFA0346012B78
:100CBC0016D1104B0C221A60002220210E4801F094
:100CCC0096F800224FF480710B4801F090F807E081
:100CDC0000BF06E000BF04E000BF02E000BF00E080
:100CEC0000BF00BF80BD00BFB4000020AC000020DE
:100CFC0094000020900000200008014044000020D7
:100D0C00A40000204000002080B582B000AF7860C5
:100D1C007B68002B0AD100223F21414801F067F883
:100D2C00012240213E4801F062F874E07B68012BFF
:100D3C000AD1002206213A4801F059F80122792102
:100D4C00374801F054F866E07B68022B0AD1002288
:100D5C005B21334801F04BF801222421304801F08B
:100D6C0046F858E07B68032B0AD100224F212C480F
:100D7C0001F03DF801223021294801F038F84AE011
:100D8C007B68042B0AD100226621254801F02FF83C
:100D9C0001221921224801F02AF83CE07B68052B3E
:100DAC000AD100226D211E4801F021F801221221E6
:100DBC001B4801F01CF82EE07B68062B0AD10022A0
:100DCC007D21174801F013F801220221144801F08B
:100DDC000EF820E07B68072B0AD10022072110486F
:100DEC0001F005F8012278210D4801F000F812E01D
:100DFC007B68082B05D100227F21094800F0F7FF02
:100E0C0009E000226F21064800F0F1FF01221021B9
:100E1C00034800F0ECFF00BF0837BD4680BD00BFA3
:100E2C00000C014080B582B000AF78607B68032B6A
:100E3C0000F2948001A252F823F000BF590E000872
:100E4C009D0E0008E10E0008250F0008464A7B683D
:100E5C0052F823301846FFF757FF002280214348F1
:100E6C0000F0C5FF01224FF48071404800F0BFFF35
:100E7C0001224FF400713D4800F0B9FF01224FF4FC
:100E8C0080613A4800F0B3FF394B01221A6066E0EA
:100E9C00354A7B6852F823301846FFF735FF01229C
:100EAC008021324800F0A3FF00224FF480712F48BC
:100EBC0000F09DFF01224FF400712C4800F097FFC9
:100ECC0001224FF48061294800F091FF284B022247
:100EDC001A6044E0244A7B6852F823301846FFF726
:100EEC0013FF01228021214800F081FF01224FF4E1
:100EFC0080711E4800F07BFF00224FF400711B48EC
:100F0C0000F075FF01224FF48061184800F06FFF6C
:100F1C00174B03221A6022E0134A7B6852F82330E5
:100F2C001846FFF7F1FE01228021104800F05FFF08
:100F3C0001224FF480710D4800F059FF01224FF44B
:100F4C0000710A4800F053FF00224FF480610748FB
:100F5C0000F04DFF064B00221A6000E000BF00BFFE
:100F6C000837BD4680BD00BF48000020000C014082
:100F7C009400002080B400AF954B1A68954B1B6809
:100F8C009A421FDA934B1A68914B1B68D31A924AF8
:100F9C0082FB03129210DB17D31A904A13608D4B0D
:100FAC001A688B4B1B68D11A8B4B83FB01239A104D
:100FBC00CB17D21A13469B0013445B00CA1A874BFB
:100FCC005A6059E0834B1A68854B1B681A44804B56
:100FDC001B689A4225DD7F4B1A68814B1B681A44AB
:100FEC007B4B1B68D31A7C4A82FB03129210DB17D3
:100FFC00D31A7A4A1360774B1A68794B1B681A44D8
:10100C00734B1B68D11A744B83FB01239A10CB17BB
:10101C00D21A13469B0013445B00CA1A6F4B5A60DA
:10102C002AE06C4B1A686E4B1B681A446D4B1B689C
:10103C001A44674B1B68D31A674A82FB031292103F
:10104C00DB17D31A654A1360624B1A68644B1B6832
:10105C001A44644B1B681A445D4B1B68D11A5E4BD7
:10106C0083FB01239A10CB17D21A13469B0013440F
:10107C005B00CA1A594B5A60554B1B680133544AD2
:10108C001360544B1A68564B1B681A44554B1B681B
:10109C001A444F4B1B689A4202DC4D4B00221A60DB
:1010AC00514B1A684E4B1B689A421FDA4C4B1A680C
:1010BC004D4B1B68D31A484A82FB03129210DB1764
:1010CC00D31A464A9360464B1A68474B1B68D11A91
:1010DC00414B83FB01239A10CB17D21A13469B006A
:1010EC0013445B00CA1A3D4BDA6059E03C4B1A685A
:1010FC003C4B1B681A443C4B1B689A4225DD384B11
:10110C001A68384B1B681A44374B1B68D31A324A7F
:10111C0082FB03129210DB17D31A304A9360304BC8
:10112C001A68304B1B681A442F4B1B68D11A2A4B78
:10113C0083FB01239A10CB17D21A13469B0013443E
:10114C005B00CA1A254BDA602AE0224B1A68244B42
:10115C001B681A44234B1B681A44234B1B68D31A75
:10116C001D4A82FB03129210DB17D31A1B4A9360A1
:10117C00184B1A681A4B1B681A441A4B1B681A44F2
:10118C00194B1B68D11A144B83FB01239A10CB17F4
:10119C00D21A13469B0013445B00CA1A0F4BDA6039
:1011AC00114B1B680133104A13600A4B1A680C4B25
:1011BC001B681A440B4B1B681A440B4B1B689A4256
:1011CC0002DC094B00221A6000BFBD4680BC704790
:1011DC00980000203C0000206766666648000020EE
:1011EC0044000020400000209C00002080B500AF8F
:1011FC0000F0FCFA00F028F800F0AEF800F060F80F
:10120C000F4801F05DFA4FF47A7000F01FF94FF4BB
:10121C007A7000F035F94FF47A7000F04BF94FF416
:10122C007A7000F061F94FF47A7000F077F9054BA1
:10123C000B221A60FFF7C8F8FFF7CEFBFAE700BFE6
:10124C00C80000209000002080B590B000AF07F1DE
:10125C00180328220021184601F0EAFD3B1D00224C
:10126C001A605A609A60DA601A610223BB6101232A
:10127C00BB621023FB6200237B6307F11803184643
:10128C0000F0E6FD0346002B01D000F0D9F80F2347
:10129C007B600023BB600023FB6000233B610023C9
:1012AC007B613B1D0021184601F052F80346002BD0
:1012BC0001D000F0C5F800BF4037BD4680BD00002E
:1012CC0080B586B000AF07F1080300221A605A609F
:1012DC009A60DA603B4600221A605A601D4B4FF050
:1012EC0080421A601B4B41F63F725A60194B002228
:1012FC009A60184B0922DA60164B00221A61154BC2
:10130C0000229A61134801F08BF90346002B01D09F
:10131C0000F096F84FF48053BB6007F108031946B0
:10132C000C4801F021FB0346002B01D000F088F89B
:10133C0000233B6000237B603B461946054801F0C7
:10134C00E9FC0346002B01D000F07AF800BF1837F7
:10135C00BD4680BDC800002080B586B000AF07F147
:10136C00080300221A605A609A60DA60294B9B6964
:10137C00284A43F004039361264B9B6903F0040352
:10138C007B607B68234B9B69224A43F00803936183
:10139C00204B9B6903F008033B603B6800224FF431
:1013AC00FC611D4800F023FD002240F2FF711B4838
:1013BC0000F01DFD4FF4FC63BB600123FB600023B8
:1013CC003B6102237B6107F108031946124800F0C8
:1013DC007DFB40F2FF73BB600123FB6000233B618C
:1013EC0002237B6107F1080319460C4800F06EFBE1
:1013FC004FF4E043BB600023FB6001233B6107F12A
:10140C0008031946044800F061FB00BF1837BD46BD
:10141C0080BD00BF0010024000080140000C0140DC
:10142C0080B582B000AF786000F0C2F8FEF7E2FE43
:10143C00FEF72EFFFEF77AFF00BF0837BD4680BDD2
:10144C0080B400AF72B600BFFEE7000080B483B07A
:10145C0000AF7860074B1B687A6892FBF3F3064A7F
:10146C001360064B00221A6000BF0C37BD4680BCCF
:10147C00704700BF58000020A0000020A4000020EE
:10148C0080B483B000AF7860074B1B687A6892FB1E
:10149C00F3F3064A1360064B00221A6000BF0C37A8
:1014AC00BD4680BC704700BF58000020A80000203B
:1014BC00AC00002080B483B000AF7860074B1B6891
:1014CC007A6892FBF3F3064A1360064B00221A600B
:1014DC0000BF0C37BD4680BC704700BF58000020D1
:1014EC00B0000020B400002080B483B000AF78605E
:1014FC00074B1B687A6892FBF3F3064A1360064BA2
:10150C0000221A6000BF0C37BD4680BC704700BF7C
:10151C0058000020B8000020BC00002080B483B02C
:10152C0000AF7860074B1B687A6892FBF3F3064AAE
:10153C001360064B00221A6000BF0C37BD4680BCFE
:10154C00704700BF58000020C0000020C4000020DD
:10155C0080B400AF044B00221A60044B00221A60C6
:10156C0000BFBD4680BC7047A0000020A400002036
:10157C0080B400AF044B00221A60044B00221A60A6
:10158C0000BFBD4680BC7047A8000020AC00002006
:10159C0080B400AF044B00221A60044B00221A6086
:1015AC0000BFBD4680BC7047B0000020B4000020D6
:1015BC0080B400AF294B1B68002B0BDD274B1B683D
:1015CC00013B264A1360254B1B68002B02D1244B90
:1015DC0001221A60234B1B68002B0BDD214B1B686F
:1015EC00013B204A13601F4B1B68002B02D11E4B82
:1015FC0001221A601D4B1B68002B0BDD1B4B1B685B
:10160C00013B1A4A1360194B1B68002B02D1184B73
:10161C0001221A60174B1B68002B0BDD154B1B6846
:10162C00013B144A1360134B1B68002B02D1124B65
:10163C0001221A60114B1B68002B0BDD0F4B1B6832
:10164C00013B0E4A13600D4B1B68002B02D10C4B57
:10165C0001221A6000BFBD4680BC7047A00000206C
:10166C00A4000020A8000020AC000020B000002046
:10167C00B4000020B8000020BC000020C0000020F6
:10168C00C400002080B485B000AF154B9B69144A90
:10169C0043F001039361124B9B6903F00103BB60A0
:1016AC00BB680F4BDB690E4A43F08053D3610C4B84
:1016BC00DB6903F080537B607B680A4B5B68FB60E3
:1016CC00FB6823F0E063FB60FB6843F08063FB6026
:1016DC00044AFB68536000BF1437BD4680BC70479A
:1016EC00001002400000014080B584B000AF78606B
:1016FC007B681B68B3F1804F13D10C4BDB690B4A31
:10170C0043F00103D361094BDB6903F00103FB6078
:10171C00FB68002200211C2000F0A1F91C2000F025
:10172C00BAF900BF1037BD4680BD00BF00100240A3
:10173C0080B400AFFEE780B400AFFEE780B400AF2A
:10174C00FEE780B400AFFEE780B400AFFEE780B4E4
:10175C0000AF00BFBD4680BC704780B400AF00BF77
:10176C00BD4680BC704780B400AF00BFBD4680BC96
:10177C00704780B500AF00F07FF800BF80BD00005F
:10178C0080B500AF024800F0E7FF00BF80BD00BF8E
:10179C00C800002080B400AF00BFBD4680BC7047BD
:1017AC000C480D490D4A002302E0D458C4500433B0
:1017BC00C4188C42F9D30A4A0A4C002301E0136086
:1017CC000432A242FBD3FFF7E5FF01F00DFBFFF75C
:1017DC000DFD704700000020680000208C2E0008D2
:1017EC006800002014010020FEE7000080B500AF67
:1017FC00084B1B68074A43F010031360032000F0EA
:10180C0023F90F2000F008F8FFF73CFF00231846DF
:10181C0080BD00BF0020024080B582B000AF786070
:10182C00124B1A68124B1B7819464FF47A73B3FBA0
:10183C00F1F3B2FBF3F3184600F03BF90346002B2F
:10184C0001D001230EE07B680F2B0AD800227968A7
:10185C004FF0FF3000F003F9064A7B681360002359
:10186C0000E0012318460837BD4680BD5C0000200F
:10187C00640000206000002080B400AF054B1B7892
:10188C001A46054B1B681344034A136000BFBD4640
:10189C0080BC7047640000201001002080B400AFB1
:1018AC00024B1B681846BD4680BC704710010020D7
:1018BC0080B485B000AF78607B6803F00703FB60F1
:1018CC000C4BDB68BB60BA684FF6FF031340BB6080
:1018DC00FB681A02BB68134343F0BF6343F4003345
:1018EC00BB60044ABB68D36000BF1437BD4680BCE4
:1018FC00704700BF00ED00E080B400AF044BDB6824
:10190C001B0A03F007031846BD4680BC704700BF96
:10191C0000ED00E080B483B000AF0346FB7197F993
:10192C000730002B0BDBFB7903F01F02064997F9FC
:10193C0007305B09012000FA02F241F8232000BFB6
:10194C000C37BD4680BC704700E100E080B483B02A
:10195C0000AF03463960FB7197F90730002B0ADBA7
:10196C003B68DAB20C4997F907301201D2B20B443A
:10197C0083F800230AE03B68DAB20849FB7903F0EC
:10198C000F03043B1201D2B20B441A7600BF0C3782
:10199C00BD4680BC704700BF00E100E000ED00E0F8
:1019AC0080B489B000AFF860B9607A60FB6803F06E
:1019BC000703FB61FB69C3F10703042B28BF042356
:1019CC00BB61FB690433062B02D9FB69033B00E0C6
:1019DC0000237B614FF0FF32BB6902FA03F3DA4359
:1019EC00BB681A407B699A404FF0FF317B6901FA62
:1019FC0003F3D9437B680B40134318462437BD4689
:101A0C0080BC704780B582B000AF78607B68013BCA
:101A1C00B3F1807F01D301230FE00A4A7B68013BBD
:101A2C0053600F214FF0FF30FFF790FF054B002262
:101A3C009A60044B07221A60002318460837BD46EB
:101A4C0080BD00BF10E000E080B582B000AF7860D0
:101A5C007868FFF72DFF00BF0837BD4680BD80B505
:101A6C0086B000AF0346B9607A60FB7300237B61DC
:101A7C00FFF742FF78617A68B9687869FFF790FFE1
:101A8C00024697F90F3011461846FFF75FFF00BF6B
:101A9C001837BD4680BD80B582B000AF0346FB71E0
:101AAC0097F907301846FFF735FF00BF0837BD46DA
:101ABC0080BD80B582B000AF78607868FFF7A2FF78
:101ACC00034618460837BD4680BD000080B48BB075
:101ADC0000AF7860396000237B6200233B6248E1F1
:101AEC0001227B6A02FA03F3FB613B681B68FA690B
:101AFC001340BB61BA69FB699A4240F037813B687D
:101B0C005B68A34A93425ED0A14A934275D8A14A1E
:101B1C00934258D09F4A93426FD89F4A934252D0D7
:101B2C009D4A934269D89D4A93424CD09B4A93421A
:101B3C0063D89B4A934246D0994A93425DD8122B64
:101B4C002AD8122B59D801A252F823F0D31B000823
:101B5C00AD1B0008BF1B0008011C0008071C000877
:101B6C00071C0008071C0008071C0008071C0008BD
:101B7C00071C0008071C0008071C0008071C0008AD
:101B8C00071C0008071C0008071C0008071C00089D
:101B9C00B51B0008C91B0008824A934213D02CE0E5
:101BAC003B68DB683B6229E03B68DB6804333B62E3
:101BBC0024E03B68DB6808333B621FE03B68DB6872
:101BCC000C333B621AE03B689B68002B02D1042368
:101BDC003B6213E03B689B68012B05D108233B62F9
:101BEC007B68FA691A6109E008233B627B68FA6931
:101BFC005A6103E000233B6200E000BFBB69FF2B8E
:101C0C0001D87B6801E07B6804337B61BB69FF2BE7
:101C1C0002D87B6A9B0002E07B6A083B9B003B611D
:101C2C007B691A680F213B6901FA03F3DB431A4005
:101C3C00396A3B6901FA03F31A437B691A603B6802
:101C4C005B6803F08053002B00F09080564B9B692F
:101C5C00554A43F001039361534B9B6903F0010315
:101C6C00BB60BB68514A7B6A9B08023352F8233035
:101C7C00FB607B6A03F003039B000F2202FA03F361
:101C8C00DB43FA681340FB607B68494A93420DD0F2
:101C9C007B68484A934207D07B68474A934201D1FC
:101CAC00022304E0032302E0012300E000237A6A0C
:101CBC0002F0030292009340FA681343FB603B4925
:101CCC007B6A9B080233FA6841F823203B685B6807
:101CDC0003F48033002B06D0384B1A683749BB69A4
:101CEC0013430B6006E0354B1A68BB69DB43334981
:101CFC0013400B603B685B6803F40033002B06D089
:101D0C002E4B5A682D49BB6913434B6006E02B4B95
:101D1C005A68BB69DB43294913404B603B685B68DD
:101D2C0003F48013002B06D0244B9A682349BB691B
:101D3C0013438B6006E0214B9A68BB69DB431F4958
:101D4C0013408B603B685B6803F40013002B06D0D8
:101D5C001A4BDA681949BB691343CB6006E0174B81
:101D6C00DA68BB69DB4315491340CB607B6A0133EE
:101D7C007B623B681A687B6A22FA03F3002B7FF4C0
:101D8C00AFAE00BF00BF2C37BD4680BC704700BF54
:101D9C000000321000003110000022100000211051
:101DAC000000121000001110001002400000014051
:101DBC0000080140000C01400010014000040140EB
:101DCC0080B485B000AF78600B467B807B689A68E6
:101DDC007B881340002B02D00123FB7301E000230E
:101DEC00FB73FB7B18461437BD4680BC704780B430
:101DFC0083B000AF78600B467B8013467B707B789A
:101E0C00002B03D07A887B681A6103E07B881A0464
:101E1C007B681A6100BF0C37BD4680BC704780B42C
:101E2C0085B000AF78600B467B807B68DB68FB601D
:101E3C007A88FB6813401A04FB68D9437B880B40F3
:101E4C001A437B681A6100BF1437BD4680BC7047CB
:101E5C0080B586B000AF78607B68002B01D1012380
:101E6C006CE27B681B6803F00103002B00F0878099
:101E7C00924B5B6803F00C03042B0CD08F4B5B680C
:101E8C0003F00C03082B12D18C4B5B6803F48033EA
:101E9C00B3F5803F0BD1894B1B6803F40033002B47
:101EAC006CD07B685B68002B68D1012346E27B68B1
:101EBC005B68B3F5803F06D1804B1B687F4A43F4C7
:101ECC00803313602EE07B685B68002B0CD17B4B5E
:101EDC001B687A4A23F480331360784B1B68774A6B
:101EEC0023F4802313601DE07B685B68B3F5A02F9F
:101EFC000CD1724B1B68714A43F4802313606F4BF7
:101F0C001B686E4A43F4803313600BE06B4B1B6809
:101F1C006A4A23F480331360684B1B68674A23F4C6
:101F2C00802313607B685B68002B13D0FFF7B6FC33
:101F3C00386108E0FFF7B2FC02463B69D31A642B08
:101F4C0001D90323FAE15D4B1B6803F40033002B2A
:101F5C00F0D014E0FFF7A2FC386108E0FFF79EFC1C
:101F6C0002463B69D31A642B01D90323E6E1534B98
:101F7C001B6803F40033002BF0D100E000BF7B683A
:101F8C001B6803F00203002B63D04C4B5B6803F01F
:101F9C000C03002B0BD0494B5B6803F00C03082B94
:101FAC001CD1464B5B6803F48033002B16D1434B9A
:101FBC001B6803F00203002B05D07B681B69012B07
:101FCC0001D00123BAE13D4B1B6823F0F8027B687A
:101FDC005B69DB00394913430B603AE07B681B6992
:101FEC00002B20D0364B01221A60FFF757FC3861CA
:101FFC0008E0FFF753FC02463B69D31A022B01D9C8
:10200C0003239BE12D4B1B6803F00203002BF0D044
:10201C002A4B1B6823F0F8027B685B69DB002749BD
:10202C0013430B6015E0264B00221A60FFF736FCB9
:10203C00386108E0FFF732FC02463B69D31A022BE9
:10204C0001D903237AE11D4B1B6803F00203002B1B
:10205C00F0D17B681B6803F00803002B3AD07B6837
:10206C009B69002B19D0174B01221A60FFF716FC45
:10207C00386108E0FFF712FC02463B69D31A022BC9
:10208C0001D903235AE10D4B5B6A03F00203002BC9
:10209C00F0D0012000F0A6FA1CE00A4B00221A60D6
:1020AC00FFF7FCFB38610FE0FFF7F8FB02463B69DA
:1020BC00D31A022B08D9032340E100BF00100240C1
:1020CC0000004242800442429E4B5B6A03F00203D2
:1020DC00002BE9D17B681B6803F00403002B00F094
:1020EC00A6800023FB75974BDB6903F08053002B14
:1020FC000DD1944BDB69934A43F08053D361914BE0
:10210C00DB6903F08053BB60BB680123FB758E4B0E
:10211C001B6803F48073002B18D18B4B1B688A4A05
:10212C0043F480731360FFF7B9FB386108E0FFF7E5
:10213C00B5FB02463B69D31A642B01D90323FDE09E
:10214C00814B1B6803F48073002BF0D07B68DB6839
:10215C00012B06D17B4B1B6A7A4A43F001031362B5
:10216C002DE07B68DB68002B0CD1764B1B6A754A23
:10217C0023F001031362734B1B6A724A23F00403AE
:10218C0013621CE07B68DB68052B0CD16D4B1B6A62
:10219C006C4A43F0040313626A4B1B6A694A43F0AE
:1021AC00010313620BE0674B1B6A664A23F00103C1
:1021BC001362644B1B6A634A23F0040313627B684B
:1021CC00DB68002B15D0FFF769FB38610AE0FFF7DD
:1021DC0065FB02463B69D31A41F28832934201D91E
:1021EC000323ABE0574B1B6A03F00203002BEED02A
:1021FC0014E0FFF753FB38610AE0FFF74FFB024690
:10220C003B69D31A41F28832934201D9032395E0FA
:10221C004C4B1B6A03F00203002BEED1FB7D012B10
:10222C0005D1484BDB69474A23F08053D3617B6867
:10223C00DB69002B00F08180424B5B6803F00C03E0
:10224C00082B61D07B68DB69022B46D13F4B002207
:10225C001A60FFF723FB386108E0FFF71FFB02460B
:10226C003B69D31A022B01D9032367E0354B1B685A
:10227C0003F00073002BF0D17B681B6AB3F5803F31
:10228C0008D1304B5B6823F400327B689B682D4986
:10229C0013434B602B4B5B6823F474127B68196AF5
:1022AC007B685B6A0B43274913434B60274B012226
:1022BC001A60FFF7F3FA386108E0FFF7EFFA02460D
:1022CC003B69D31A022B01D9032337E01D4B1B6842
:1022DC0003F00073002BF0D02FE01C4B00221A608F
:1022EC00FFF7DCFA386108E0FFF7D8FA02463B69E1
:1022FC00D31A022B01D9032320E0124B1B6803F0E5
:10230C000073002BF0D118E07B68DB69012B01D145
:10231C00012313E00B4B5B68FB60FB6803F480321A
:10232C007B681B6A9A4206D1FB6803F470127B68C7
:10233C005B6A9A4201D0012300E00023184618374B
:10234C00BD4680BD0010024000700040600042425B
:10235C0080B584B000AF786039607B68002B01D108
:10236C000123D0E06A4B1B6803F007033A689A42DA
:10237C0010D9674B1B6823F0070265493B68134370
:10238C000B60634B1B6803F007033A689A4201D059
:10239C000123B8E07B681B6803F00203002B20D0FC
:1023AC007B681B6803F00403002B05D0594B5B685A
:1023BC00584A43F4E06353607B681B6803F00803DE
:1023CC00002B05D0534B5B68524A43F46053536067
:1023DC00504B5B6823F0F0027B689B684D491343BC
:1023EC004B607B681B6803F00103002B40D07B68BB
:1023FC005B68012B07D1474B1B6803F40033002BA0
:10240C0015D101237FE07B685B68022B07D1414B20
:10241C001B6803F00073002B09D1012373E03D4BC3
:10242C001B6803F00203002B01D101236BE0394B35
:10243C005B6823F003027B685B68364913434B608F
:10244C00FFF72CFAF8600AE0FFF728FA0246FB685F
:10245C00D31A41F28832934201D9032353E02D4B16
:10246C005B6803F00C027B685B689B009A42EBD1C3
:10247C00274B1B6803F007033A689A4210D2244B8F
:10248C001B6823F0070222493B6813430B60204B67
:10249C001B6803F007033A689A4201D0012332E02B
:1024AC007B681B6803F00403002B08D0194B5B6896
:1024BC0023F4E0627B68DB68164913434B607B684E
:1024CC001B6803F00803002B09D0124B5B6823F444
:1024DC0060527B681B69DB000E4913434B6000F0B4
:1024EC0021F802460B4B5B681B0903F00F030A49EA
:1024FC00CB5C22FA03F3094A1360094B1B6818469C
:10250C00FFF78AF9002318461037BD4680BD00BF7F
:10251C000020024000100240742E00085C000020D5
:10252C006000002090B48AB000AF2A4B3C1D0FCB4A
:10253C0084E80F0040F201233B800023FB61002361
:10254C00BB6100237B6200237B6100233B62224B37
:10255C005B68FB61FB6903F00C03042B02D0082BB6
:10256C0003D02DE01D4B3B622DE0FB699B0C03F06F
:10257C000F0307F12802134413F8243C7B61FB6919
:10258C0003F48033002B13D0134B5B685B0C03F00C
:10259C00010307F12802134413F8283CBB617B6943
:1025AC000E4A02FB03F2BB69B2FBF3F37B6204E05D
:1025BC007B690B4A02FB03F37B627B6A3B6202E0A2
:1025CC00064B3B6200BF3B6A18462837BD4690BCA1
:1025DC00704700BF642E00080010024000127A0001
:1025EC0000093D0080B485B000AF78600A4B1B68D1
:1025FC000A4AA2FB03235B0A7A6802FB03F3FB6023
:10260C0000BFFB685A1EFA60002BF9D100BF00BF57
:10261C001437BD4680BC70475C000020D34D62105F
:10262C0080B582B000AF78607B68002B01D10123AC
:10263C0041E07B6893F83D30DBB2002B06D17B6820
:10264C00002283F83C207868FFF74EF87B68022262
:10265C0083F83D207B681A687B6804331946104662
:10266C0000F06AFA7B68012283F846207B6801221D
:10267C0083F83E207B68012283F83F207B6801228F
:10268C0083F840207B68012283F841207B6801227B
:10269C0083F842207B68012283F843207B68012267
:1026AC0083F844207B68012283F845207B68012253
:1026BC0083F83D20002318460837BD4680BD000036
:1026CC0080B485B000AF78607B6893F83D30DBB2A6
:1026DC00012B01D0012335E07B68022283F83D20D9
:1026EC007B681B68DA687B681B6842F00102DA6061
:1026FC007B681B68164A934209D07B681B68B3F150
:10270C00804F04D07B681B68124A934211D17B68BE
:10271C001B689B6803F00703FB60FB68062B10D05B
:10272C007B681B681A687B681B6842F001021A60A0
:10273C0007E07B681B681A687B681B6842F0010223
:10274C001A60002318461437BD4680BC704700BF82
:10275C00002C01400004004080B582B000AF7860CE
:10276C007B681B681B6903F00203022B22D17B6878
:10277C001B68DB6803F00203022B1BD17B681B6810
:10278C006FF002021A617B6801221A777B681B6862
:10279C009B6903F00303002B03D0786800F0B1F9B8
:1027AC0005E0786800F0A4F9786800F0B3F97B686C
:1027BC0000221A777B681B681B6903F00403042B47
:1027CC0022D17B681B68DB6803F00403042B1BD14C
:1027DC007B681B686FF004021A617B6802221A770F
:1027EC007B681B689B6903F44073002B03D07868EB
:1027FC0000F087F905E0786800F07AF9786800F065
:10280C0089F97B6800221A777B681B681B6903F0C7
:10281C000803082B22D17B681B68DB6803F00803D4
:10282C00082B1BD17B681B686FF008021A617B6850
:10283C0004221A777B681B68DB6903F00303002B07
:10284C0003D0786800F05DF905E0786800F050F985
:10285C00786800F05FF97B6800221A777B681B6848
:10286C001B6903F01003102B22D17B681B68DB68FB
:10287C0003F01003102B1BD17B681B686FF0100248
:10288C001A617B6808221A777B681B68DB6903F482
:10289C004073002B03D0786800F033F905E07868BA
:1028AC0000F026F9786800F035F97B6800221A7779
:1028BC007B681B681B6903F00103012B0ED17B683D
:1028CC001B68DB6803F00103012B07D17B681B68D5
:1028DC006FF001021A617868FEF7A2FD7B681B6835
:1028EC001B6903F08003802B0ED17B681B68DB68AF
:1028FC0003F08003802B07D17B681B686FF080028C
:10290C001A61786800F067FA7B681B681B6903F032
:10291C004003402B0ED17B681B68DB6803F040033F
:10292C00402B07D17B681B686FF040021A617868F6
:10293C0000F0F9F87B681B681B6903F02003202B5F
:10294C000ED17B681B68DB6803F02003202B07D1BA
:10295C007B681B686FF020021A61786800F032FA0D
:10296C0000BF0837BD4680BD80B584B000AF78602D
:10297C0039607B6893F83C30012B01D10223B3E022
:10298C007B68012283F83C207B68022283F83D207F
:10299C007B681B689B68FB60FB6823F07703FB601C
:1029AC00FB6823F47F43FB607B681B68FA689A60C2
:1029BC003B681B68B3F5005F3ED0B3F5005F00F2D7
:1029CC008780B3F5805F00F08580B3F5805F7FD89A
:1029DC00702B1AD0702B7BD8602B50D0602B77D8F3
:1029EC00502B3CD0502B73D8402B58D0402B6FD849
:1029FC00302B64D0302B6BD8202B60D0202B67D899
:102A0C00002B5CD0102B5AD062E07B6818683B68B6
:102A1C0099683B685A683B68DB6800F05CF97B6836
:102A2C001B689B68FB60FB6843F07703FB607B686B
:102A3C001B68FA689A604EE07B6818683B68996876
:102A4C003B685A683B68DB6800F045F97B681B689B
:102A5C009A687B681B6842F480429A603BE07B6812
:102A6C0018683B6859683B68DB681A4600F0BCF88C
:102A7C007B681B685021184600F013F92BE07B682B
:102A8C0018683B6859683B68DB681A4600F0DAF84E
:102A9C007B681B686021184600F003F91BE07B681B
:102AAC0018683B6859683B68DB681A4600F09CF86C
:102ABC007B681B684021184600F0F3F80BE07B683C
:102ACC001A683B681B681946104600F0EAF802E0E9
:102ADC0000BF00E000BF7B68012283F83D207B68CB
:102AEC00002283F83C20002318461037BD4680BDD9
:102AFC0080B483B000AF786000BF0C37BD4680BC9B
:102B0C00704780B483B000AF786000BF0C37BD460F
:102B1C0080BC704780B483B000AF786000BF0C37C6
:102B2C00BD4680BC704780B483B000AF786000BFF6
:102B3C000C37BD4680BC704780B485B000AF786060
:102B4C0039607B681B68FB607B68254A934207D021
:102B5C007B68B3F1804F03D07B68224A934208D143
:102B6C00FB6823F07003FB603B685B68FA681343F7
:102B7C00FB607B681A4A934207D07B68B3F1804FA5
:102B8C0003D07B68174A934208D1FB6823F4407347
:102B9C00FB603B68DB68FA681343FB60FB6823F05F
:102BAC0080023B685B691343FB607B68FA681A60C0
:102BBC003B689A687B68DA623B681A687B689A6241
:102BCC007B68074A934203D13B681A697B681A6396
:102BDC007B6801225A6100BF1437BD4680BC704728
:102BEC00002C01400004004080B487B000AFF860B6
:102BFC00B9607A60FB681B6A7B61FB681B6A23F017
:102C0C000102FB681A62FB689B693B613B6923F01C
:102C1C00F0033B617B681B013A6913433B617B69A1
:102C2C0023F00A037B617A69BB6813437B61FB6801
:102C3C003A699A61FB687A691A6200BF1C37BD4613
:102C4C0080BC704780B487B000AFF860B9607A6020
:102C5C00FB681B6A23F01002FB681A62FB689B6915
:102C6C007B61FB681B6A3B617B6923F470437B616E
:102C7C007B681B037A6913437B613B6923F0A003D8
:102C8C003B61BB681B013A6913433B61FB687A6982
:102C9C009A61FB683A691A6200BF1C37BD4680BC5A
:102CAC00704780B485B000AF786039607B689B68F2
:102CBC00FB60FB6823F07003FB603A68FB6813430E
:102CCC0043F00703FB607B68FA689A6000BF143717
:102CDC00BD4680BC704780B487B000AFF860B96067
:102CEC007A603B60FB689B687B617B6923F47F4364
:102CFC007B613B681A027B681A43BB6813437A6991
:102D0C0013437B61FB687A699A6000BF1C37BD4630
:102D1C0080BC704780B485B000AF786039607B6848
:102D2C0093F83C30012B01D1022341E07B68012256
:102D3C0083F83C207B68022283F83D207B681B686B
:102D4C005B68FB607B681B689B68BB60FB6823F05F
:102D5C007003FB603B681B68FA681343FB607B687D
:102D6C001B68FA685A607B681B68144A934209D046
:102D7C007B681B68B3F1804F04D07B681B68104ADA
:102D8C0093420CD1BB6823F08003BB603B685B684B
:102D9C00BA681343BB607B681B68BA689A607B682F
:102DAC00012283F83D207B68002283F83C2000231D
:102DBC0018461437BD4680BC704700BF002C01403C
:102DCC000004004080B483B000AF786000BF0C37C3
:102DDC00BD4680BC704780B483B000AF786000BF44
:102DEC000C37BD4680BC704770B500260C4D0D4CA1
:102DFC00641BA410A64209D100F022F800260A4D4B
:102E0C000A4C641BA410A64205D170BD55F8043BB6
:102E1C0098470136EEE755F8043B98470136F2E740
:102E2C00842E0008842E0008842E0008882E0008AA
:102E3C0003460244934200D1704703F8011BF9E7A3
:102E4C00F8B500BFF8BC08BC9E467047F8B500BF8B
:082E5C00F8BC08BC9E4670475B
:102E640002030405060708090A0B0C0D0E0F1010C7
:102E74000000000000000000010203040607080926
:042E84003101000810
:042E88000D01000830
:102E8C000100000001000000010000000100000032
:102E9C000100000001000000010000000100000022
:102EAC000100000001000000010000000100000012
:102EBC00C800000032000000C8000000050000003F
:102ECC0002000000030000000100000002000000EE
:102EDC0003000000040000000A0000000024F400BD
:082EEC001000000001000000CD
:04000005080017AD2B
:00000001FF
